:100000000C945A000C946C000C946C000C946C00D2
:100010000C946C000C946C000C946C000C946C00B0
:100020000C946C000C946C000C946C000C946C00A0
:100030000C946C000C946C000C946E000C946C008E
:100040000C946C000C946C000C946C000C946C0080
:100050000C946C000C946C000C946C000C946C0070
:100060000C946C000C946C000C946C000C946C0060
:100070000C946C000C946C000C946C000C946C0050
:100080000C946C000C946C000C946C000C946C0040
:100090000C946C000C946C000C946C000C946C0030
:1000A0000C946C000C946C000C946C000C946C0020
:1000B0000C946C0011241FBECFEFD8E0DEBFCDBF83
:1000C00021E0A0E0B1E001C01D92AC30B207E1F741
:1000D0000E942C010C9493010C9400001F920F922B
:1000E0000FB60F9211248F939F93AF93BF9380917C
:1000F000000190910101A0910201B09103010196CC
:10010000A11DB11D8093000190930101A0930201F4
:10011000B0930301BF91AF919F918F910F900FBE4C
:100120000F901F9018951092C50087E68093C40029
:1001300088E08093C10086E08093C200089590918A
:10014000C00095FFFCCF8093C600089582E084BD77
:1001500093E095BD99EF97BD80936E0078940895D4
:10016000F8946091000170910101809102019091D9
:1001700003017894089580E480937C0087E880935D
:100180007A000895ECE7F0E09081987F8770892BE2
:100190008083EAE7F0E080818064808380917A0048
:1001A00086FDFCCF80917800909179000895CF92E0
:1001B000DF92EF92FF92CF93DF93EC010E94B000A9
:1001C0006B017C01C732D240E8F180910801909127
:1001D0000901A0910A01B0910B01A7019601281B0A
:1001E000390B4A0B5B0B293C31054105510550F198
:1001F0008091080190910901A0910A01B0910B0131
:10020000A7019601281B390B4A0B5B0B60E67AEEBF
:1002100080E090E00E947101309305012093040179
:10022000C0920801D0920901E0920A01F0920B01FC
:1002300081E090E090930701809306018BB180628A
:100240008BB903C08BB18F7D8BB9DF91CF91FF90BC
:10025000EF90DF90CF9008950E9493000E94BB0022
:100260000E94A6008AB180628AB980E00E94C20022
:100270000E94D7008091060190910701892B21F0FF
:1002800010920701109206018091040190910501DE
:100290008834910584F08CE40E949F008AE00E94DB
:1002A0009F002FEF81EE94E0215080409040E1F7D5
:1002B00000C000000FC084E50E949F008AE00E94F9
:1002C0009F002FEF81EE94E0215080409040E1F7B5
:1002D00000C000008FE39FE10197F1F700C000002C
:1002E000C4CFA1E21A2EAA1BBB1BFD010DC0AA1F81
:1002F000BB1FEE1FFF1FA217B307E407F50720F08F
:10030000A21BB30BE40BF50B661F771F881F991F09
:100310001A9469F760957095809590959B01AC0152
:0A032000BD01CF010895F894FFCF4E
:00000001FF
